:020000022000DC
:1060000000000420B54B0500F54B0500F74B0500DB
:10601000F94B0500FB4B0500FD4B0500000000009F
:10602000000000000000000000000000314B0500EF
:10603000014C050000000000514B0500054C050017
:10604000094E0500074C0500074C05008980040037
:1060500039810400074C050005240500074C0500A4
:10606000074C0500074C0500074C0500074C0500D0
:10607000074C0500074C0500074C0500074C0500C0
:10608000074C0500B5480500074C0500074C050006
:10609000074C0500074C0500F9690400074C050092
:1060A000074C0500074C0500074C0500074C050090
:1060B000074C0500074C0500000000000000000030
:1060C000074C0500074C0500074C0500B57205009C
:1060D000074C0500074C0500074C0500156C020035
:1060E000074C0500074C0500074C050000000000A8
:1060F00000000000074C0500000000002D730500A3
:10610000000000000000000000000000000000008F
:10611000000000000000000000000000000000007F
:10612000000000000000000000000000000000006F
:10613000000000000000000000000000000000005F
:10614000000000000000000000000000000000004F
:10615000000000000000000000000000000000003F
:10616000000000000000000000000000000000002F
:10617000000000000000000000000000000000001F
:10618000000000000000000000000000000000000F
:1061900000000000000000000000000000000000FF
:1061A00000000000000000000000000000000000EF
:1061B00000000000000000000000000000000000DF
:1061C00000000000000000000000000000000000CF
:1061D00000000000000000000000000000000000BF
:1061E00000000000000000000000000000000000AF
:1061F000000000000000000000000000000000009F
:10620000F1EE103A43F08073E1EE103A704700BFB0
:1062100010B5054C237833B9044B13B10448AFF3E0
:1062200000800123237010BD7C6900200000000065
:10623000AC58060008B5034B1BB103490348AFF344
:10624000008008BD0000000080690020AC580600F6
:10625000154B002B08BF134B9D46A3F5803A002138
:106260008B460F461348144A121A36F0A4FE0F4B01
:10627000002B00D098470E4B002B00D098470020F1
:10628000002104000D000D48002802D00C48AFF397
:10629000008036F005FE200029002EF0DDFC36F0EF
:1062A000D9FD00BF0000080000000420000000002D
:1062B000000000007C6900204CEA00200000000083
:1062C000000000000146014800F084BAB8690020CF
:1062D00038B500F02FF940B10024054620460134BE
:1062E00000F0C4FDE0B28542F9D838BD70B592B077
:1062F0001D460C46164601A84222002136F05BFEE0
:10630000412D02D8002012B070BD621CD2B202230F
:106310008DF806408DF80E408DF826408DF81E2031
:106320008DF827208DF8312040F20945052240F2F2
:1063300001248DF807308DF808308DF809308DF87C
:1063400012308DF821308DF822308DF833308DF8F1
:106350003B30ADF80C502423ADF810408DF81520DB
:106360008DF823201B4D8DF81630042201248DF862
:1063700020308DF8243006958DF81C408DF81F20B4
:106380008DF830203046144D0A9540F60836082323
:106390004FF411640A22ADF804608DF82C30ADF88A
:1063A0002E4040238DF8342001A9062640F20755DF
:1063B0000A4C8DF825604222ADF838508DF83C30FB
:1063C0008DF84330CDF83F4036F0D1FD422012B079
:1063D00070BD00BF2001052407058003070580026A
:1063E000A0F11000FFF782BF007EFF2806D010B595
:1063F00000F09EFC044618B1204610BD00207047F6
:106400002EF056FE204610BD007EFF280ED000B5AF
:1064100083B00DF1070100F0CFFC20B19DF807001B
:1064200003B05DF804FB4FF0FF30F9E74FF0FF30A9
:10643000704700BF007EFF2811D000B583B0012255
:106440000DF1070100F080FC20B94FF0FF3003B0E0
:106450005DF804FB9DF8070003B05DF804FB4FF006
:10646000FF307047007EFF2801D000F0FFBC70476E
:10647000007EFF2801D000F03FBD0020704700BF24
:10648000F8B50646007EFF281CD017465AB10D46C7
:10649000144600F027FC2946224680B1307E00F0E9
:1064A00095FC241A01D13846F8BD05442EF000FEB3
:1064B000307E00F017FC294622460028EED13F1B13
:1064C0003846F1E70020F8BD70B50368184A5B68EC
:1064D00082B093428DF8071024D10546007EFF2834
:1064E0001DD000F0FFFB0DF10706012431462246C6
:1064F00088B1287E00F06AFC241A02D1012002B083
:1065000070BD06442EF0D4FD287E00F0EBFB314632
:1065100022460028EDD1C4F1010002B070BD002078
:1065200002B070BD01220DF10701984702B070BDA5
:1065300081640200014B1878704700BFB4690020E5
:10654000037EFF2B00D07047064B1A78002AFAD141
:10655000054902764161012200F1100103481A70D9
:1065600000F0D8B8B4690020BC000600B86900206B
:10657000007EFF2807D000B583B000F0B3FB20B148
:1065800003B05DF804FB0020704701902EF090FDF1
:10659000019803B05DF804FB01B900B1704700B584
:1065A00083B0694600F0B4FB009BB3F5966F02D050
:1065B00003B05DF804FB00F043FBF9E730B4084B8F
:1065C000084AFF2002F108054FF47A7400213032A6
:1065D00018761D609C601A615960596130BC704723
:1065E00098690020CC0006002DE9F0410024484EB7
:1065F0002546435D4719A3B103F14002D2B2012AF7
:106600000AD9F42B08D81A060ED44FF0010EA3F5C0
:106610005842B2F5006F56D201354719435D002B41
:10662000EAD12046BDE8F08103F0E002C02A57D04D
:1066300003F0F002E02A66D003F0F802F02AEBD172
:1066400003F007024FF0040E7B7803F0C00CBCF19E
:10665000800FE1D197F802C00CF0C00803F03F03AF
:10666000B8F1800F43EA8213D6D10CF03F0CBEF193
:10667000030F4CEA83132DD0FA7802F0C007802F65
:10668000CAD102F03F0242EA8313A3F58032B2423C
:10669000C2D8A3F55847B7F5006FBDD3B3F5803F17
:1066A00005F1040510D31E2CBBDC6300970A0B44D4
:1066B000C2F30902A7F52057A2F5105221F8147071
:1066C0005A80023495E77544202CAAD021F8143062
:1066D00001348EE7A3F50062B2F5784F97D39BE7BC
:1066E0007A7802F0C007802F03F01F0394D102F0E4
:1066F0003F0242EA8313A3F18002B2F5F06F8BD21E
:106700004FF0020E83E703F00F024FF0030E9BE7FA
:10671000FFFF0F00F8B5B0F818214469B0F81A313E
:10672000054608680E469B1A1444076895F81C1124
:106730009BB222463046B84750B32218944229D221
:10674000766806E0052B32D023780BB31C44A242B6
:1067500020D96378042BF5D1E378002BF4D195F898
:106760001C11013185F81C11002EEDD095F8501147
:106770000B29E9D801F1480745F82760217295F8FF
:106780005011013185F850111E462378002BDDD1C0
:106790000020F8BDB5F818216B69104480B2A5F847
:1067A0001801588095F81C211A710120F8BD94F940
:1067B0000230002B08DB95F81E31591C85F81E119C
:1067C000A1780B43A370BFE795F81D31591C85F8DC
:1067D0001D11F5E72DE9F043284DDFF8B090AC46E8
:1067E00004468846BCE80F0089B003AF0FC703AE6C
:1067F0000FCE05F1140E25460FC59EE80700DCF804
:1068000000303B806B4636682E8003C36B4603CB5B
:10681000012504F118034FF480766361A061E16102
:1068200084F8202004F59870C4F818912022A4F868
:106830001C61002184F81E5136F0BDFB40F209476F
:10684000042240F2EF230E4E0E48C4F82801002126
:10685000C4F82C1184F85021A3804FF4E131A571C4
:10686000C4F82071C4F824610748FFF769FE404668
:1068700000F0D4F9284609B0BDE8F0830001060015
:10688000300106003C010600986900200900000163
:1068900000487047B8690020014B5869704700BF35
:1068A000B86900202DE9F04F89B0F8B1032816D05F
:1068B0002B4C94F8503183424FD9483004F5AA71DB
:1068C00054F82000FFF790FEC0B20130400040F4C1
:1068D0004070A4F85201234809B0BDE8F08F204C65
:1068E000D4F82C0150B104F5AA71EBE71C4CD4F894
:1068F0002031A4F854314FF44170EAE7684600F0C3
:10690000A1F9054610B300F1FF3A0DF10103164F4E
:10691000E94653FA8AFAA64604AE97E80F0019F83A
:1069200001CB86E80F000CF00F080DF1200BD844C6
:106930000BEB1C1C18F8108C1CF8103CAEF85681A0
:10694000D145AEF854310EF1040EE6D16800C0B264
:106950000130400040F44070BBE70020BCE700BFBE
:10696000B86900200A6B002020010600024B18685D
:1069700000B10069704700BF4C6B002030B408487C
:10698000BDF80850046844B1646934B10846A446AF
:1069900011461A462B4630BC6047002030BC704779
:1069A0004C6B002030B40848BDF80850046844B16E
:1069B000A46934B10846A44611461A462B4630BC99
:1069C000604730BC704700BF4C6B00200020704710
:1069D000024B186808B190F860007047506B0020B7
:1069E0002DE9F843234C2568002D3CD01E462C236E
:1069F00003FB00531746D3F8209088460446B9F1AC
:106A0000000F32D0484637F0F9F92C2303FB045429
:106A1000D4E90954DFF864C0174B082802464946F8
:106A200028BF08224046002D08BF6546002C08BF3D
:106A30001C4636F09CFA284637F0E0F9102802464A
:106A4000294628BF1022384636F091FA204637F002
:106A5000D5F9042802462146304628BF0422BDE865
:106A6000F84336F084BABDE8F883DFF814900820C4
:106A7000CBE700BF506B00207001060060010600EC
:106A80005401060070B5104E3368D3B12C2404FBBA
:106A90000034054662691AB19047336884F83200C1
:106AA0002C2202FB053393F8324014B10124204616
:106AB00070BD284623463A22022100F0FBFF204603
:106AC00070BD1C46204670BD506B0020074B1B68F4
:106AD00053B110B42C2404FB0030C46A038E0C6044
:106AE00013805DF8044B7047704700BF506B002067
:106AF00008B520220023052100F0DCFF4FF0FF3015
:106B000008BD00BF30B4094C24685CB10D46114685
:106B10002C2202FB0044E46924B11A46284623468D
:106B200030BC1847012030BC704700BF506B0020BC
:106B300030B4094C029A246854B10D462C2101FB53
:106B40000044A46824B119462846234630BC18479F
:106B50004FF0FF3030BC7047506B002030B4094C10
:106B6000029A246854B10D462C2101FB0044E468CC
:106B700024B119462846234630BC18474FF0FF3051
:106B800030BC7047506B0020044B1B682BB12C228B
:106B900002FB0030036903B118477047506B0020B7
:106BA000054B1B682BB12C2202FB0030836903B11B
:106BB00018470120704700BF506B002003F0C6BE8D
:106BC00000B5124B402283B083F8272304F094F8D9
:106BD0004FF0804302A80024D3F8385400F8084D41
:106BE0002EF094F802A80A4B40F8043D2EF0DEF88F
:106BF0002EF0EEF8EB0705D400214FF0FF3002F045
:106C000085F9F9E7204603F0A1FEF5E700E100E091
:106C1000BD6B0200002003F007BB00BF00B50023DE
:106C200083B00322CDE9002303490448C8222CF095
:106C30006BFD03B05DF804FB74010600C16B02003C
:106C40002EF0E8BD4FF08052536E1BBA0360136EF6
:106C50001BBA436008207047004870477C0106005B
:106C600070B51E4C2368D3B1012901D0012070BD3D
:106C70001578C5F34115012D13D0022D0FD154788D
:106C8000012C21D0022CF1D19388072B07D1144C71
:106C9000114623892246BDE8704002F063BE002001
:106CA00070BD51782229E1D111465288003218BFB7
:106CB00001221A7602F03EFE2268136A002BD5D01C
:106CC000107E9847284670BDDC69002CE7D011463D
:106CD00023782246BDE8704002F044BE546B002089
:106CE0000460002010B5044601F03EFE08B9002003
:106CF00010BD01F041FE0028F9D1044B4FF456724B
:106D000002FB0434207900F0010010BD586B002014
:106D1000064A4FF4567303FB002050F8063F0B6001
:106D2000838882798A718B80704700BF586B0020FE
:106D300008B5044A4FF4567303FB0020103001F0ED
:106D400075FC08BD586B00202DE9F0414FF45675D5
:106D500005FB00F5174E05F11004344492B22046AD
:106D600001F08EFC0746204601F078FC3F2802D84F
:106D70003846BDE8F08106EB0508002098F80310BE
:106D800002F024F80028F3D0204601F067FC3F28E9
:106D900005D898F80310002002F028F8E8E705F578
:106DA0003672324498F803104023002002F02EF887
:106DB000DEE700BF586B0020034A4FF4567303FB15
:106DC0000020103001F0C6BC586B00202DE9F843BC
:106DD0004FF4567505FB00F5224E05F124043444AA
:106DE00092B2204601F0F0FC0746204601F01EFC5E
:106DF0003F2802D83846BDE8F88301F0B5FD0028E9
:106E0000F8D001F0B9FD80460028F3D1204601F00A
:106E10000DFC0028EED006EB0509404699F802105B
:106E200001F0D4FF0028E5D005F54675354420462D
:106E30002946402201F024FC034668B12A4699F80D
:106E40000210404601F0E2FF0028D3D1064B1B6838
:106E5000DB07CFD500BECDE799F8021001F0C6FFE1
:106E6000C8E700BF586B0020F0ED00E02DE9F041CD
:106E7000054601F079FD10B90020BDE8F08101F070
:106E80007BFD06460028F7D14FF4567404FB05F449
:106E9000174F04F124053D44284601F0C7FB0028A4
:106EA000EAD007EB0408304698F8021001F08EFF94
:106EB0000028E1D004F5467427442846394640228C
:106EC00001F0DEFB044668B13A4698F802103046FD
:106ED000234601F09BFF48B9064B1B68DB07CBD567
:106EE00000BECAE798F8021001F080FF2046C4E710
:106EF000586B0020F0ED00E008B5044A4FF45673DB
:106F000003FB0020243001F0A9FB08BD586B0020D2
:106F1000F0B51B4C83B000214FF45672204601257A
:106F20000E4636F048F8FF234FF4424204F1380190
:106F30006371E2802B460827009604F110004FF49D
:106F400080722773258101F035FB2B464FF4807248
:106F500004F59C71009504F1240001F02BFB04F56D
:106F60000E7128462BF0DCFD04F5227120622846C4
:106F7000E6612BF0D5FDC4E90C0603B0F0BD00BFFF
:106F8000586B002010B5094B002203F1240403F1D3
:106F900010001A601A7101F0A3FC204601F0A0FC59
:106FA00020460121BDE8104001F0BABC586B00201A
:106FB0002DE9F0414B79022B82B004D00025284600
:106FC00002B0BDE8F0818B79022BF7D1304EB37857
:106FD0002BB1304B1B68DB07F0D500BEEEE78B789A
:106FE00033700C780C4407466378242B4FF0090566
:106FF0000BD1082A02D822E0AA4220D323781C44CD
:107000001D446378242BADB2F6D0052B2CD0042B75
:1070100015D163790A2B12D11F4A94F8008001928E
:10702000022301320092384604EB08011A4601F0AF
:1070300025FE0028CDD00E3518FA85F5ADB21748DB
:1070400001F00CFB3F28BAD9F178002001F0BEFE18
:107050000028B4D0114801F001FB3F28F17811D885
:10706000002001F0C3FEAAE72146384601F08AFE5F
:107070000028AED0A378737023781C441D44ADB2B1
:107080006378C4E7064A4023002001F0BFFE96E77C
:10709000586B0020F0ED00E05A6B0020686B002078
:1070A000306E002038B5137803F06003202B01D038
:1070B000002038BD264C938825789D42F8D153781E
:1070C000203B032BF4D8DFE803F029200802012934
:1070D00031D0032934D0012038BD01292BD0032918
:1070E000F9D155881B482571E94301F0010101F0F0
:1070F00017FC194B002BEED0C5F3400205F001013F
:107100000020FFF749FA012038BD0129E3D11146DB
:107110000723124A02F026FC012038BD0129F6D0CF
:107120000329D8D10E4B002BD5D00C490020AFF34A
:107130000080012038BD114602F0FCFB012038BD63
:10714000084B002BC7D051880020AFF30080C2E766
:10715000586B00207C6B0020996502005E6B00205C
:1071600000000000000000002DE9F047574CE278D5
:107170008A420D4607461E4656D19AB204F536712C
:1071800004F1100001F020FB514BD3B16379FF2BC8
:1071900017D0B6B104F2D72808EB060AA8F2C7291F
:1071A00002E0C2450DD0637918F8012F9A42F8D158
:1071B000484601F04BFA0028F3D16179AFF3008023
:1071C000EFE7444B23B1444801F040FA00285DD07A
:1071D000414801F043FA3F285BD8A378AB4203D083
:1071E00001252846BDE8F0873C4B13B10020AFF3E2
:1071F000008001F0B9FB20BB394801F017FA0028E4
:10720000EED1002EECD016F03F06E9D1A178384639
:1072100001F0DCFD05460028E2D0A178384633466F
:10722000324601F0F3FDDCE7A3788B42DCD02D4B36
:107230001D6815F00105D4D000BE00252846BDE824
:10724000F08701F099FB05460028D5D1244801F0CC
:10725000EDF90028D0D0A178284601F0B7FD00282C
:10726000CAD021494022A1F53D7001F009FA034638
:1072700038B328461C4AA17801F0C8FD0028AFD1D8
:10728000184B1B68DB07B7D500BEB5E722F0D2FF6D
:107290009EE7E178002001F099FD00289DD00E487E
:1072A00001F0DCF93F2804D8E178002001F09EFDD0
:1072B00093E740230D4AE178002001F0A7FDA37871
:1072C0008CE7A17801F092FD96E700BF586B002093
:1072D0000000000035A20400686B002000000000E0
:1072E0007C6B0020F0ED00E0706E0020306E00201E
:1072F0008C220021014835F05EBE00BFB06E002038
:107300008C220021014835F056BE00BFB06E00202F
:107310002DE9F0414B79032B82B004D000242046A4
:1073200002B0BDE8F0810D79C5EBC5041234A4B2FA
:10733000944205D9224B1B68DA07EFD500BEEDE772
:10734000204F7A78002AF5D191F800E001EB0E0C7D
:107350009CF80180B8F1210FECD1C7F888C08846AD
:1073600011F80E1007F1010E614407F1020C2A46D4
:10737000CDE900CE064601F081FC0028DAD098F86D
:107380000630B978012B04BF98F80730FB70012252
:10739000D7F888303A7198F80220B3F807303A707D
:1073A000FB800029BBD030464023074A01F02EFD68
:1073B0000028B4D1024B1B68DB07B0D500BEAEE796
:1073C000F0ED00E0B06E0020F86E0020F0B513780C
:1073D00003F01F05012D83B002D0002003B0F0BDE3
:1073E0006F4F95883E78EDB2AE42F6D113F0600350
:1073F00005460C46164604D1012900F09480012070
:10740000ECE7202BE9D15378013B0A2BE5D801A208
:1074100052F823F0DD740200CB740200B97402004C
:10742000DB730200DB730200DB730200DB7302001C
:10743000DB730200837402005F7402004174020077
:10744000012918D00329DAD17188564BC9B2397194
:10745000002BD4D00020AFF300800120BEE701292B
:10746000CDD17188504B090A797123B10020AFF357
:1074700000800028B1D03146284602F05BFA012096
:10748000ACE7012971D00329B9D1F4887388402C65
:10749000204628BF402013F0FF014FEA132205D0F9
:1074A000012C03D997F848308B4275D03F4B0090A0
:1074B0000020FFF777FAA2E70129A0D13146234641
:1074C0003B4A02F04FFA204688E7012997D131461E
:1074D0002346384A02F046FA20467FE701298ED13A
:1074E000B6F806C073886046402828BF402013F0D5
:1074F000FF014FEA132242D0BCF1010F49D90138F4
:107500002D4B397280B200900020FFF737FA231814
:107510009BB2002B36D1294A1268D2077FF55DAFA6
:1075200000BE18465AE75278062A7FF456AF728892
:10753000120A212A0DD0222A7FF44FAF1846FFF7F6
:1075400015FAFB8802463146284602F00BFA20461F
:1075500044E7D7F88820002A3FF43FAF137831463C
:1075600003B0BDE8F04002F0FDB9F388402B3FF6D0
:1075700034AF31460D4A02F0F5F920462EE70C46AD
:107580000F4BC0E7314628460D4A02F0EBF90120C7
:1075900024E70B4B0024B6E7013880B2094B86E79D
:1075A000B06E00200000000000000000F86E002017
:1075B000B46E0020B56E0020B96E0020F0ED00E042
:1075C000B86E0020F96E0020F0B51C4CA5786678E6
:1075D0008D4283B00BD1B54216D1194A22B19AB26D
:1075E00018490020AFF30080012003B0F0BDB14284
:1075F000F3D0154B1B68DB0703D500BE002003B09A
:10760000F0BD002003B0F0BD00229BB2114607463A
:107610000093104604F14803FFF7C4F938464023AD
:1076200004F14802A17801F0F1FB0028DCD1064BFF
:107630001B68DA07E5D500BED7E700BFB06E0020B3
:1076400000000000B86E0020F0ED00E030B5154CF1
:1076500083B000210D464FF41672204635F0ABFC86
:1076600004F1380104F1100000950123802200F09C
:10767000A1FF0123802204F1B801009504F1240048
:1076800000F098FF04F59C7101202BF049FA04F5F5
:10769000C47120620120E5612BF042FAC4E90C05B7
:1076A00003B030BDB4E7002010B5084C002304F14E
:1076B0001000C4E90033C4E9023301F011F904F108
:1076C0002400BDE8104001F00BB900BFB4E7002072
:1076D0002DE9F0474B79012B03D000242046BDE86B
:1076E000F0878B79012BF8D1CB79002BF5D10B7872
:1076F000CD1899B26C78242C0BD1914202D9ECE7C9
:107700008A42EAD32B781D440B446C78242C99B21E
:10771000F6D0042CE1D16B79012BDED1AB79032BB0
:10772000DBD1EB79002BD8D1DFF8B88098F80130A5
:1077300013B998F802702FB1274B1B68DB07CCD523
:1077400000BECAE7AB7888F800302E7892462A79D6
:107750008B1981469CB22E4432B91FE03378974290
:107760001C44A4B21E4419D2A24517D37378052B2A
:10777000F4D13146484601F005FB0028DCD0B3784F
:10778000DA0914BF88F8013088F8023033782A7992
:1077900001371C44FFB2A4B21E44DFE70F4800F0DB
:1077A0005DFF3F289AD998F80210002001F00EFBE7
:1077B000002893D0094800F051FF3F2898F80210A4
:1077C00003D8002001F012FB88E7054A402300207F
:1077D00001F01CFB82E700BFF0ED00E0C4E70020F1
:1077E0008CE90020B4E7002000207047F8B53D4C3C
:1077F000A2788A421F4613D19AB204F5EC7104F1C3
:10780000100000F0E1FF384B13B10020AFF300800F
:10781000364800F023FF3F282CD801252846F8BD24
:1078200063788B4208D0324B1D6815F00105F5D006
:1078300000BE00252846F8BD064604F1240000F0ED
:10784000F5FE40BB2B4800F0F1FE0028E5D1002FEB
:10785000E3D017F03F07E0D16178304601F0B6FA87
:1078600005460028D9D0617830463B463A4601F0BB
:10787000CDFAD3E7A178002001F0A8FA0546002848
:10788000CBD01A4800F0EAFE3F28A17820D800208B
:1078900001F0ACFAC2E76178002001F097FA002805
:1078A000D0D0402204F5067104F1240000F0E8FE77
:1078B000034698B104F506726178002001F0A6FA3B
:1078C0000028AAD10A4B1B68DB07BBD500BEB9E76D
:1078D000094A4023002001F099FA9FE7617801F0FE
:1078E00085FAAFE7B4E7002000000000C4E70020FD
:1078F000F0ED00E0D8E700208CE9002030B4114B17
:107900009C689A6B93F83C5083F82C10A21A0221C1
:1079100083F830109A6225B942F2050183F83E508F
:10792000998744B13AB11A7BD20906D193F82F1046
:1079300030BC01F0ABBA30BC704793F82E1030BCAD
:1079400001F0A4BA3C71002038B5214B214C05460A
:107950001BB1607BFFF724F9A8B1A06BA36894F872
:107960002F101D4A1B1AB3F5007F28BF4FF4007378
:1079700028469BB201F04AFA20B9184B1B68DB0776
:1079800000D500BE38BDA268A36B84F83E0042F269
:107990000771D31A0120A1870221A36284F82C0069
:1079A00084F83010002AEDD0002BEBD0237BDB09CC
:1079B00006D194F82F102846BDE8384001F066BA89
:1079C00094F82E102846BDE8384001F05FBA00BF99
:1079D000A16B02003C7100203C6F0020F0ED00E044
:1079E00070B5314CE28AA36852BA92B286B00546AD
:1079F00012B1B3FBF2F292B2A66BD4F81110607B15
:107A00009B1BB3F5007F28BF4FF4007309BA0093A6
:107A1000B6FBF2F302FB13621944244BFFF788F81C
:107A2000031E22DB94F82E200DD011469BB228466F
:107A30001E4A01F0EBF9B0B91D4B1B68DB0712D5EC
:107A400000BE06B070BD0724194603A8CDF80E305D
:107A5000ADF812308DF80C508DF8102005938DF88C
:107A60000D4001F025F806B070BDA268A36B43F687
:107A700002200021D31AA08784F83E1001200221A1
:107A8000A36284F82C0084F83010002AEBD0002B7D
:107A9000E9D0237BDB0914BF94F82E1094F82F1043
:107AA000284601F0F3F9DEE73C7100203C6F00202E
:107AB000F0ED00E010B4054C012084F83C1084F88F
:107AC0003D2084F83E305DF8044B70473C71002047
:107AD00040220021014835F06EBA00BF3C71002001
:107AE00040220021014835F066BA00BF3C710020F9
:107AF0004B79082B01D0002070478B79062BFAD1E7
:107B0000CB79502BF7D1162A06D81C4B1B68D90706
:107B1000F1D500BE0020704770B5194D8B7885F8FF
:107B20002D300B7882B005F12F0205F12E06194495
:107B30000223CDE900261A46044601F09FF848B911
:107B40000E4B1B68DA0702D500BE02B070BD0020E4
:107B500002B070BD20461F2300242A4695F82F103E
:107B600085F8304001F052F930B9044B1B68DB074F
:107B700002D500BE1720E8E71720E6E7F0ED00E0A9
:107B80003C710020012901D00120704770B51378A5
:107B900003F07F01022984B0054606D003F060039C
:107BA000202B1AD0002004B070BD5478012CF5D1E0
:107BB0005388002BF6D1404E918896F83030042B34
:107BC000C9B272D096F82E208A423DD096F82F4046
:107BD0008C4250D0012004B070BD5378FE2B16D0DB
:107BE000FF2BDFD15388002BDCD1D488A3B2002B2C
:107BF000D8D1314E1146284686F83030C6E90D33CB
:107C0000B48786F83E3001F095FE0120CBE753881B
:107C1000002BC7D1D388012BC4D128498DF80F3050
:107C2000002946D00192FEF7D3FE019A0028B9D070
:107C3000431EDBB204AC114604F8013D284622463F
:107C4000012301F08FFEC5E7022BC3D1B46BB368EB
:107C50001B1B11460324B36206F120020D2386F894
:107C6000304001F0D3F80028B4D1154B1B68DB0776
:107C700098D500BE97E7002BACD1214601F0F8F86B
:107C80000028A7D12146284601F046FE0028A1D1B0
:107C9000002386F83030284696F82F10064A1F2316
:107CA00001F0B4F80028E0D094E701F0EFF82046A6
:107CB00079E70B46BEE700BF3C710020D1690200A6
:107CC000F0ED00E02DE9F041AB4C94F83050012D7F
:107CD0008EB01E46074645D02BD3032D05D0022D6E
:107CE00060D001200EB0BDE8F08194F82E308B42B8
:107CF000F7D10D2EF5D1E37B282B00F035812A2B0F
:107D000040F028819D4B13B1607BFEF73DFF0020C2
:107D100084F830001F23984A94F82F10384601F059
:107D200075F8002878D1964B1B68DA0777D500BE26
:107D3000D8E794F82F208A42D3D11F2B03D1914B3F
:107D4000216899426DD0042394F82E1084F83030C5
:107D5000384601F09BF8384694F82F1001F096F859
:107D60000020BFE7E27BA36B282A12D02A2A00F06A
:107D70009180217B626B1E44CB09A6637DD0964225
:107D80000DD27F4B1B68DB0746D500BE94F8305000
:107D9000A5E7626B1E449642A663C0F0CB80022327
:107DA00084F8303094F82E10384601F0B5FD0028E4
:107DB00097D1A368A26B94F82E10934202D9207B2E
:107DC000C00956D19A1A0325A26238460D236E4A7D
:107DD00084F8305001F01AF80028A4D081E76B4BEA
:107DE000002B00F0FF81E17C3046C1F3400301F03D
:107DF00001020909FEF786FE002840F0F38194F89D
:107E00003C302BB943F602220023A28784F83E308F
:107E100001213846FFF772FD94F830505FE70020EB
:107E200060E75B4BE07B6168236200236162A362D1
:107E3000012184F82C30A3632828A36884F830102B
:107E4000636300F0CE802A2860D0002B00F02281EE
:107E5000217BC90940F01E81B3F5007FD8D81146B7
:107E60009BB24C4A384600F0D1FF00283FF45BAF8C
:107E7000D2E7384601F00AF833E793B2607B454A0F
:107E800004F10F01FEF734FE0028C0F28980A66BD2
:107E9000626B74E7E28A52BA92B21AB1A168B1FB7E
:107EA000F2F292B2D4F811103A4DB3FBF2FC09BAD7
:107EB00002FB1C32607B009661442B46FEF74EFEAF
:107EC0000028C0F2C380864239D9361A40B1A36B6C
:107ED000291813FA80F332462846A36335F052F886
:107EE0000023CDF81630194694F82F20ADF81A303B
:107EF00005A807238DF8147007968DF818208DF8C3
:107F0000153000F0D5FD94F83050E8E6E18A49BA22
:107F100089B2002B69D0257BED0940F08C800029C7
:107F200000F00082B3FBF1F1002900F02382282841
:107F300038460CD1FFF754FD94F83050CFE6D4E921
:107F40000D231E449642A663BFF429AF3846FFF7BF
:107F5000FBFC61E7104B002B3FF4D9AE04F10F019D
:107F6000607BAFF30080D2E60C4B002B3FF4CFAE2A
:107F7000607BAFF30080CAE63C710020896B020091
:107F8000F0ED00E0555342435C710020056B0200A8
:107F9000555342533C6F00200000000000000000D9
:107FA000A368A66B94F83C1084F82C509A1B02200E
:107FB000A26284F8300021B942F2050084F83E1034
:107FC000A087002B3FF464AF002A3FF461AF237B0E
:107FD000DB0940F0BC8194F82F10384600F056FFC2
:107FE00055E7E18A49BA89B20BBB00293FF4D7AE05
:107FF00094F83C00A362022184F82C1084F830101D
:1080000000287FF4CFAE42F205000021A08784F85B
:108010003E10002B3FF4C6AE237BDB0940F08F817E
:108020001146384600F032FF94F8305057E6257B71
:10803000ED097FF474AF94F83C00A362022184F848
:108040002C1084F830100028DDD0E5E7A36BA2687F
:108050001E4443F602200021931BA08784F83E10A3
:1080600001200221A663A36284F82C0084F830105A
:10807000002A3FF497AE002B3FF494AE237BDB093C
:1080800040F05D8194F82F10384600F0FFFE94F820
:10809000305024E6667B252800F2328101A353F894
:1080A00020F000BFD9810200018302000183020099
:1080B0008782020001830200018302000183020023
:1080C0000183020001830200018302000183020098
:1080D0000183020001830200018302000183020088
:1080E0000183020001830200018302003782020043
:1080F0000183020001830200018302000183020068
:10810000018302000183020001830200EF8102006B
:10811000DF7D02000183020001830200018302006F
:108120000183020001830200018302000183020037
:108130008D810200018302003D810200304604AAC5
:1081400005A9FEF7C3FC059B002B00F00881BDF8D4
:108150001020002A00F00381013B8B491BBA12BAA0
:10816000C1E900320820A368002B3FF451AE9842C9
:1081700028BF184683B26063834A94F82E103846AD
:1081800000F044FE00283FF4CEAD45E605AD0023E7
:108190000DF10E02304604A96B600593AB60FEF74B
:1081A00095FC049A002A00F0DA80BDF80E30002B0E
:1081B00000F0D58012BA5BBA08200221ADF81E305B
:1081C00006928DF817008DF81C1095E807006E4B8D
:1081D00083E807000C20C6E73046FEF753FC002872
:1081E0003FF40DAEA368002B3FF4D9AD10E69DF827
:1081F00016306649002203F0800362F3C7138DF83E
:10820000163003238DF815208DF817208DF81430C3
:10821000002900F0B1803046FEF7C2FC9DF8163010
:10822000594A80F0010060F3C7138DF81630059BA2
:108230001360042097E74FF0203302250022CDE998
:108240000522304607A909AA08934FF0800C07932E
:1082500009930D93CDE90A330C931F260DAB8DF8CE
:1082600016508DF8175005AD8DF818608DF815C0B3
:10827000FEF7B6FB0FCD444E0FC60FCD0FC62B68D1
:10828000336024206FE794F83C2094F83D0094F884
:108290003E10DFF8F4C0DFF8FCE04FF000084FF0CC
:1082A0000003CDE90588CDE9078862F303038DF863
:1082B0001630F0220A23ADF824808DF820008DF8C6
:1082C00021108DF814208DF81B3005AD0FCDACE8D2
:1082D0000F002B68ACF80030BEF1000F4ED0ACF1AF
:1082E000100130464FF40072AFF300800028A4F86C
:1082F0003C8084F83E8008DB00283FF473AF32E70F
:1083000094F83C30002B7FF483ADA38E1E4A2049A5
:10831000607BFEF7EDFB0028FFF67AAD00283FF406
:1083200061AF20E7012194F83C0084F82C10022171
:10833000A36284F8301000287FF46BAE63E694F8F3
:108340002E10384600F0A2FD94F83050C7E494F89F
:108350002E10384600F09AFDD4E90D260FE594F86A
:108360003C30002B7FF454AD43F6022284F83E30BB
:10837000A2874DE50221D6E701204FE7A4F83CE0B3
:1083800084F83EE01220EEE63C6F0020A16B020074
:108390004B7100200000000030B5154C83B0002167
:1083A0000D464FF4E672204634F005FE04F12C0130
:1083B000201D00950123402200F0FCF801234022FB
:1083C00004F16C01009504F1180000F0F3F804F1D9
:1083D000AC0101202AF0A4FB04F1FC016061012042
:1083E00025612AF09DFBC4E9090503B030BD00BF3B
:1083F0007C71002010B5064C2046002340F8043B59
:1084000000F06EFA04F11800BDE8104000F068BA00
:108410007C7100204B79FF2B01D0002070472DE9A3
:10842000F041324D6B7882B00BB9AB781BB10020B4
:1084300002B0BDE8F0810C788B782B700746087984
:108440000E460C4418B36378052B0AD0A3189C423F
:1084500002D306E0A34204D921780C4461780529AF
:10846000F8D1DFF89480CDF8048008F101030246CA
:10847000009321460223384600F000FCA0B1337976
:10848000A978C3EBC3031C4431B9697891B9A01B27
:1084900080B202B0BDE8F08108F24B1238464023AA
:1084A00000F0B4FC0028F0D1114B1B68DA07BED5F0
:1084B00000BEBDE7002000F0DBFC07460028E6D147
:1084C0000C494022A1F5BA7000F0DAF80028DED09D
:1084D00003466978074A384600F098FC0028D6D150
:1084E000034B1B68DB07D2D500BED0E77C710020B0
:1084F000F0ED00E0087300207D71002038B5264CB7
:10850000A078884212D062788A420DD1234A22B1E3
:1085100099B20020AFF300806178002000F0A8FC41
:10852000054610B3012038BD002038BD9AB204F5CD
:10853000A671201D00F048F9194B13B10020AFF3CC
:108540000080A178002000F093FC05460028E9D1C6
:10855000144800F083F83F28E4D9A178124A28464D
:10856000402300F053FC012038BD10494022A1F502
:10857000BA7000F085F80028D4D0034661780B4A21
:10858000284600F043FC0028CCD1094B1B68DB07D0
:10859000C8D500BEC6E700BF7C7100200000000007
:1085A0000000000080710020C872002008730020C5
:1085B000F0ED00E02DE9F041B2F5004F9DF8188094
:1085C00030D80446C0681E460F46154618B14FF015
:1085D000FF312AF04BFD206918B14FF0FF312AF02E
:1085E00045FDE288E068276066F30E02C2F30721CA
:1085F000002368F3C711E2806381A580E1712381C4
:1086000018B11A4619462AF0B1F8206938B100238A
:108610001A4619462AF0AAF80120BDE8F081012087
:10862000BDE8F0810020BDE8F08100BF03894289E8
:10863000808892B29BB2934236BFC2EB40029B1A33
:108640009B189BB2984228BF1846704702894389FD
:108650009BB2981AB0FA80F04009704703894289AA
:10866000808892B29BB2934236BFC2EB40029B1A03
:108670009B189BB2984286BFC01A80B200207047F8
:108680002DE9F843054600690E46174618B14FF02C
:10869000FF312AF0EBFC2B896989A8889BB289B24B
:1086A0008B4236BFC1EB40045C1AE418A4B2002C24
:1086B0004AD0A04206D283422CBF191A191889B297
:1086C00069810446BC4228BF3C468842A4B203D814
:1086D000091A89B28842FBD9EA882B68401AC2F38A
:1086E0000E0887B21FFA88F2BC4202FB013125D97D
:1086F00017FB08F91FFA89F94A46304634F037FC6F
:10870000E21B12FB08F206EB090092B2296834F072
:108710002EFC6A89A88892B211198BB29A4215D997
:1087200040001B1A9BB228696B8120B100231A46B6
:1087300019462AF01BF82046BDE8F88302FB04F234
:10874000304634F014FCE4E769898BB24000834280
:10875000E9DBE6E738B5054600690C4618B14FF08D
:10876000FF312AF083FC29896B89AA8889B29BB2E0
:10877000994236BFC3EB4200C81A401880B200B31A
:10878000824209D291422CBF8B1A8B189BB29A421B
:108790006B8103D89B1A9BB29A42FBD9EA8829685D
:1087A000C2F30E02204602FB031134F0E0FB012469
:1087B000286920B100231A46194629F0D7FF204620
:1087C00038BD0446F4E700BF2DE9F047144612B95E
:1087D0002046BDE8F0870546C0680F4618B14FF047
:1087E000FF312AF043FCE9792E896A89AB88C909EF
:1087F000B6B292B231D1964236BFC2EB4302B21A40
:10880000921992B29A4231D29A1A92B29442E9885B
:1088100028BF1446C1F30E089E42304603D3C01A47
:1088200080B29842FBD21B1A2A681FFA83F9A1452D
:1088300008FB002026D308FB04F2394634F097FBEE
:10884000A3199BB2AA88B3424FEA420201D39342D2
:1088500001DB9B1A9BB22B8109E0E9889C42C1F3A2
:108860000E0822D3E41A08FB0477ABBB0024E868A7
:108870000028ADD000231A46194629F077FF20467C
:10888000BDE8F08719FB08FA1FFA8AFA5246394602
:1088900034F06DFBA4EB090212FB08F207EB0A01AE
:1088A00092B2286834F063FBCAE7964210D25800AF
:1088B000811A314489B221448142ADDBD618361B7E
:1088C000B6B2B24201D8B042A6DC361AB6B2A3E7BD
:1088D000B11A89B25800EEE716461C469AE700BF67
:1088E00010B50446C06818B14FF0FF312AF0BEFB46
:1088F000206918B14FF0FF312AF0B8FBE06800237F
:108900006381238118B11A46194629F02FFF206987
:1089100020B100231A46194629F028FF012010BD76
:1089200038B50446C0680D4618B14FF0FF312AF043
:108930009DFB206918B14FF0FF312AF097FBE379D6
:10894000E06865F3C713E37120B100231A461946A6
:1089500029F00CFF206920B100231A46194629F09E
:1089600005FF012038BD00BF024B5878003018BF0A
:1089700001207047A0730020024B1878C0F38000DC
:10898000704700BFA0730020024B1878FF3818BF53
:1089900001207047106100202DE9F043394D2B78FC
:1089A000FF2B83B003D0012003B0BDE8F083372252
:1089B00000210646344834F0FEFA344901202AF0FA
:1089C000AFF8334B1860002834D032490B460024EE
:1089D0004A6833F8080B4988009429F023FE2E4B8F
:1089E000186038B32D4B5BB32D4FDFF8BC90DFF828
:1089F000BC803846AFF300803A78C9F800000CE03C
:108A0000D9F8003013EBC10329D01B6898473A7896
:108A10000134E4B2131DA3422ADBA31ADBB2A24243
:108A200004EB440103EB4302EAD8042B17D808EB0C
:108A3000C203EAE71B4B1B68DA0715D500BEB3E794
:108A4000DFF86880164F012458F8183B98473B78A8
:108A500004339C4204F101040ADC062CF4D1114BCE
:108A60001B68DB0700D500BE002003B0BDE8F08323
:108A700030462E7001F0AAF9304601F0A9F9012024
:108A800092E700BF10610020A07300205073002007
:108A9000D8730020B8600020DC73002000000000C4
:108AA0004C730020F0ED00E048730020B801060090
:108AB0002DE9F0434378023B85B080468946032B7D
:108AC00000F2A880DFE803F03A582402644B1A78D9
:108AD000D1071AD51A7863496FF382021A700868B1
:108AE000B9F1000F21D004AA002342F80C3D414601
:108AF0002AF084F8019B43B15B4B4FF080525A60DF
:108B000040BFBFF34F8FBFF36F8F05B0BDE8F08359
:108B1000534B1A78D007F8D51A78524942F004021C
:108B20001A700868B9F1000FDDD14B4641464FF08D
:108B3000FF3229F01BFE05B0BDE8F083484A4949E1
:108B4000137808686FF300031370117800236FF334
:108B5000410111705370117863F382011170B9F102
:108B6000000FE2D004AA414642F80C3D2AF046F834
:108B7000019B002BC0D1C8E73C4D3D4C2B78002C0D
:108B80004ED03C4F3C4E002408E0326812EBC1024C
:108B900010D10134E4B21A1DA24219DBE21AA34239
:108BA00004EB4401D2B2F0D8042AF2D802EB42021C
:108BB00007EBC2025269002AEBD0D8F8041098F8EB
:108BC000000090472B780134E4B21A1DA242E5DA86
:108BD000234B1A78520798D51A7822496FF38202EC
:108BE0001A7098F800308DF8043005220023CDF873
:108BF0000A30CDF80630ADF80E3008688DF8052043
:108C0000B9F1000F21D14B464FF0FF3201A929F0F5
:108C1000ADFD7AE7134B186800297FF464AF84E751
:108C2000144E04EB4402042C06EBC20207D852692E
:108C30002AB1D8F8041098F8000090472B78013436
:108C4000E4B21A1DA242ECDAC2E704AA01A942F872
:108C5000103D29F0D3FF009B002B3FF456AF4BE7AC
:108C6000A0730020DC73002000ED00E04C730020B6
:108C700000000000B8010600487300202DE9F84FFD
:108C80000A9F002A4BD00C46497805290ED1E67878
:108C900006F00306B34209D1A37803F07F03082B43
:108CA0000DD9204B1B68DA0700D500BE1D4B1B6891
:108CB000DB0702D40020BDE8F88F00BEFAE7DFF83A
:108CC00068A0DFF868909AF800B0904600250EE0A2
:108CD0006378052BEAD1E37803F00303B342E5D1CF
:108CE000A37803F07F03082BDBD89AF800B099F83B
:108CF0000210204602F058F80028D2D058462146EB
:108D000001F07EF80028D1D0A378DA0916BF0B9ABB
:108D10003B7013702378013545451C44D8D10120A0
:108D2000BDE8F88FF0ED00E010610020A073002096
:108D300030B5124D85B000230824029001930391B1
:108D400028688DF8054092B104AA01A942F8103DA7
:108D500029F054FF009B43B1094B4FF080525A60F9
:108D600040BFBFF34F8FBFF36F8F05B030BD1346C9
:108D700001A94FF0FF3229F0F9FCF6E7DC7300207F
:108D800000ED00E038B58B7803F07F03082B06D99F
:108D90000B4B1B68DB0700D500BE002038BD094A1D
:108DA000094B0C46204691781D7801F0FDFF002804
:108DB000EED021462846BDE8384001F021B800BF7A
:108DC000F0ED00E0A073002010610020CB092533F6
:108DD00001F07F010348044A03EB41010844116894
:108DE00001F098BFA0730020D8730020CB09253371
:108DF00001F07F010348044A03EB41010844116874
:108E000001F0B4BFA0730020D873002038B5154C12
:108E100001F07F0504EB450404EBD11420346079A4
:108E2000C00706D5104B1B68DA0700D500BE00202E
:108E300038BD65790D4845F001050078657101F090
:108E4000B7F80028F4D16379074A60F3000363712F
:108E5000637960F3820363711368DB07E7D500BEB3
:108E600038BD00BFA0730020F0ED00E010610020CD
:108E7000054B01F07F0203EB420303EBD11191F8A4
:108E8000250000F001007047A073002010B50D4CC4
:108E900001F07F0204EB420404EBD11494F8253076
:108EA0009B0700D510BD084B2034187801F07AF9E3
:108EB000637943F002036371637943F001036371E3
:108EC00010BD00BFA07300201061002010B50D4C34
:108ED00001F07F0204EB420404EBD11494F8253036
:108EE0009B0700D410BD084B2034187801F082F99C
:108EF00063796FF34103637163796FF30003637107
:108F000010BD00BFA073002010610020BA4B1B7879
:108F1000FF2B00F00B822DE9F04F04468DB04FF48B
:108F20007A7200238002A10D33F0CEFDDFF8E8B2A3
:108F3000DFF8E892DFF8E8A20090661CDBF800009A
:108F400000F03881002C00F03581009B002B14BF0D
:108F50001A46012209A929F0F7FE002869D09DF8D8
:108F60002530013B072B00F21E81DFE813F03000B3
:108F700008001C010D0101019600650058009F4D7D
:108F80009F4A2B789DF82470002A00F01581002656
:108F90000FE0DAF8003013EBC10300F01F815B68CB
:108FA000384698472B780136F6B21A1DB242C0F205
:108FB000A381F21AD2B29E4206EB460102EB4203B3
:108FC000E7D3042A00F20A8109EBC303E7E78B4DDC
:108FD0008B4A2B789DF82470002A00F0238100260C
:108FE0000FE0DAF8003013EBC10300F02C815B686E
:108FF000384698472B780136F6B21A1DB242C0F2B5
:109000006381F21AD2B29E4206EB460102EB4203A2
:10901000E7D3042A00F2178109EBC303E7E70A9BB1
:109020000BB10B989847DBF800002AF0CBF9002829
:1090300083D10DB0BDE8F08F9DF82810714B01F081
:109040007F0503EB450303EBD11393F825006FF382
:10905000000083F8250093F825006FF3820083F861
:109060002500002D00F05A81654ADB7C32B1634A4D
:1090700012789342C0F00A819B1ADBB2042B00F2F3
:109080000D8103EB430309EBC3031D699DF8292000
:109090000B9B9DF82400A847C5E75A4F9DF82480F4
:1090A0003B7843F001033B7097F825306FF30003E2
:1090B00087F8253097F825306FF3820387F825303D
:1090C00097F826306FF3000387F8263097F826309C
:1090D0006FF3820387F82630002000F0ADFC9DF886
:1090E000283003F06002602A00F0C780402A00F0B8
:1090F000DC8003F01F03012B00F03A81C0F01781E0
:10910000022B40F0BA809DF82C1001F07F03082B51
:1091100000F2B38058003B18CE093344384DDB7C55
:10912000002D00F06981354D2D78AB4280F06281D1
:10913000DAF8005003EB430305EBC305002A00F007
:10914000628155B1E86800F077FCEB6840460AAAF6
:109150000121984700287FF466AF9DF82400002184
:1091600001F020F880219DF8240001F01BF85AE757
:10917000244B1B78D9077FF556AF234B002B3FF4C8
:1091800052AFAFF300804EE71E4B1A78D0077FF541
:109190004AAF1E4A002A3FF446AF1878C0F3C00019
:1091A000AFF300803FE71A4B1B68DA077FF53BAF50
:1091B00000BE38E72246CDE6DFF860800126D8F809
:1091C0000430384698472B7804339E4208F118083B
:1091D00006F1010600F39080062EF0D10C4B1B68BF
:1091E000D80751D400F01EFC0A4B002B3FF41BAFF4
:1091F000AFF3008017E700BF106100204C73002020
:1092000000000000A073002000000000000000002B
:10921000F0ED00E000000000DC730020B801060063
:1092200048730020DFF800830126D8F80430384660
:1092300098472B7804339E4208F1180806F101067E
:1092400042DC062EF1D1B24B1B68DD0700D500BE13
:1092500000F0E8FBAF4B9DF828209A70E3E6581E1B
:10926000C0B2FDF719FB18B14378022B00F07682EB
:10927000A74B1B68DB0700D500BEA54B1B68DD07AD
:109280007FF56BAF00BE68E700BEABE7DAF8002001
:1092900003EB430312EBC3037FF4F7AE9C4B1B6855
:1092A000DC077FF5C6AE00BEC3E69B4800283FF44E
:1092B00054AF00F0C1FB40460AAA0121FDF7D0FCE3
:1092C00000287FF4B0AE48E737220021914833F000
:1092D00072FE924A4FF0FF3353619361D36113845E
:1092E000136053609360D360136100F09BFB894B64
:1092F0009DF828209A7096E637220021854833F0A1
:109300005AFE864A4FF0FF3353619361D361138451
:10931000136053609360D360136163E70B9B9DF808
:1093200029209DF8240000F09DFB7CE67047202A50
:1093300000F07B81002AA0D19DF82930092B9CD810
:1093400001A252F823F000BFDB940200BF94020098
:109350007B920200A39402007B9202008994020097
:109360002D9502007B920200FB9402005B940200A8
:109370009DF82C300F2B3FF6F0AE3B44684ADB786B
:1093800082B3684A127893422AD2DAF8005003EB8B
:10939000430315EBC3053FF4E0AEE86800F04CFB77
:1093A000EB680AAA01214046984700287FF43BAEAB
:1093B0009DF8283013F060057FF4CFAE9DF829307A
:1093C0000A3B012B3FF6C9AE00F036FB9DF8293071
:1093D0000A2B00F05E810AA9404600F0ABFA22E6B3
:1093E0009B1ADBB2042B3FF6B8AE03EB430309EB49
:1093F000C305D2E75B1BDBB2042B40F22D81002AB0
:109400007FF4ABAE15469DF82930012B04D0C0F097
:109410002B81032B7FF431AFBDF82A204AB9012BF1
:1094200000F033813B181E44203673799B0740F1CE
:10943000A780002D3FF4F7ADE86800F0FDFAEB6877
:109440000AAA012140469847002000F0F5FA97F853
:109450002630DE073FF5E7ADBDE79DF82A300593DE
:109460001A467B789A4207D07B78002B40F01A810D
:10947000059B002B7FF4F3AE9DF814307B704046C3
:109480000AA900F057FACEE50AA800F0DBFA404638
:109490009DF82A1000F0A2FC3B7843F002033B70D9
:1094A000C1E5BDF82A30012B7FF457AE3B7840462A
:1094B00043F008030AA93B7000F03CFAB3E5BDF89D
:1094C0002A30012B7FF449AE3B7840466FF3C3034B
:1094D0000AA93B7000F02EFAA5E53B78990801F047
:1094E0000201C3F340130CAA0B4322F80E3D404681
:1094F00002230AA900F036FA95E50CAA7B7802F857
:109500000E3D404601230AA900F02CFA8BE500BF6E
:10951000F0ED00E0A0730020616C0200A373002056
:10952000000000004C730020B8010600BDF82A00BE
:10953000030A5A1EC0B20E2A3FF60FAE01A151F81F
:1095400022F000BF13960200F7950200E795020093
:109550005B9102005B910200C1950200F795020049
:109560005B9102005B9102005B9102005B91020043
:109570005B9102005B9102005B9102009B950200EF
:10958000AD4B187800F00EFE737943F0020373714F
:10959000737943F0010373714BE7A84B002B3FF441
:1095A000DCADFDF759FB024600283FF466AE4046AD
:1095B00053880AA900F0D6F900287FF434ADCCE531
:1095C0009F4B002B3FF4C9ADAFF30080024600284B
:1095D0003FF4C3AD404613780AA900F0C3F9002850
:1095E0007FF421ADB9E5BDF82C10FDF75BF902461B
:1095F0000028EFD1B1E5022B00F0A980914B002BA0
:109600003FF4ABADAFF300800246002A3FF435AE25
:10961000CDE7FDF73DF9122302460AA9404600F0C6
:10962000A1F900287FF4FFAC97E59DF82C300F2BB3
:109630003FF693AD3B44844ADB782AB1834A1278E3
:10964000934219D39B1ADBB2042B3FF686AD03EB92
:10965000430309EBC30575E503EB430309EBC305BE
:10966000002A7FF46FADCEE63B18334420330CAABA
:109670005B79C3F3400338E7DAF8005003EB4303A8
:1096800015EBC3053FF469AD5CE54046FFF71EFCF2
:10969000CFE60CAA0AA902F80E5D4046012300F0AD
:1096A00061F9C0E4404600F039FC684D664AB9787B
:1096B0002B780291E2B100260DE0DAF8003013EBCE
:1096C000C1033ED05B68404698472B780136F6B21E
:1096D0001A1DB2421FDBF21AD2B29E4206EB4601BD
:1096E00002EB4203E9D3042A2BD809EBC303E9E7D1
:1096F0005749019401260C4601E0062E20D06368EC
:10970000404698472B7804339E4204F1180406F132
:109710000106F2DD019C4F483722002133F04BFC5B
:109720004D4A4FF0FF3353619361D361138413604B
:1097300053609360D36013619DF80830BB7097E667
:10974000019C464B1B68D907F6D500BEF4E7FDF730
:10975000A3F80246002A3FF490AD28E7C2793B788F
:10976000511161F30413921162F345133B70438866
:10977000CDF81880C318079300F109060194079BE0
:10978000B3423CD973780B2B00F0B68001230293CF
:109790007378042B40F0A980079B9B1B9BB203931B
:1097A0002A4B1A78284B002B7ED04FF000084546F4
:1097B00018E0DAF8004014EBC10400F09680A368CA
:1097C000039A069831469847082805F1010302D903
:1097D000039A82421DD2DDB21C4B1A78131DAB4294
:1097E000A8465FDBAB1ADBB2954205EB450103EB04
:1097F0004304DED3042B78D809EBC404DFE7184B0D
:10980000DDF81880019C002B3FF436AEAFF30080EA
:1098100032E6029B012B84460BD1A36811490298C2
:10982000114A8B4208BF02200146934208BF022121
:109830000291002122E000BF10610020596C02005B
:109840000000000000000000000000004C73002039
:10985000B8010600A0730020A3730020F0ED00E023
:1098600000000000B16F0200D1760200B27813440C
:1098700057FA83F3DA78FF2A37D1DD70029ACBB238
:10988000934201F10101F1D32B46314662461D4856
:10989000644601F0BBFA1C4B1B7804334345264455
:1098A000BFF66DAF019CE3E4184B0493DFF86480CE
:1098B00011E09B689847049B082803F11803049360
:1098C00002D9039B8342A4D20F4B1B7808F10108F5
:1098D00004334345E6DB049B039A0698B8F1050F71
:1098E00031465FFA88F51C46E3D1094B019C1B68A1
:1098F000DA077FF5C2ACBFE43378F27802921E44F7
:1099000046E700BFB37300204C730020B801060087
:10991000F0ED00E000000000054B01F07F0203EBDA
:10992000420303EBD11191F82500C0F340007047CA
:10993000A07300200A4630B4094C496805461068F7
:10994000234603C30023C4E9023392F900209A425C
:109950002846ACBF802119461A4630BCFFF756BADC
:10996000A0740020F0B50E462B4C496807463068BD
:10997000A260254603C50021E181F588AB4228BFDE
:109980002B4683B0A381ADB13BB3002A3DD094F9FF
:109990000000402B28BF402300282CDB1F4A3846FC
:1099A000FFF734FA98B91E4B1B68DB0712D500BECF
:1099B00003B0F0BD96F90030002BACBF8021002130
:1099C00038462B462A46FFF721FA0028EBD0012023
:1099D00003B0F0BD002003B0F0BD94F90020002AD0
:1099E000ACBF194680211A463846FFF70FFA002807
:1099F000D9D00120ECE71146084801931A4633F00C
:109A0000B6FA064A019B8021EEE7054B1B68D90791
:109A1000E0D500BE1046CBE7A0740020B47400204F
:109A2000F0ED00E0034B0022C3E90022C3E902226B
:109A30001A617047A0740020014B1861704700BF85
:109A4000A07400200346064A5968006810B4134603
:109A5000002403C3C2E902445DF8044B704700BF11
:109A6000A074002070B5424C2278C909B1EBD21F16
:109A700082B0064616D033B13E4B1B68DA0743D49A
:109A8000002002B070BD3C4B13B12146AFF3008003
:109A90002369002B42D03046354A032198470120E4
:109AA00002B070BD94F90020A068002A08DB0028ED
:109AB000E6D01A463149019333F059FAA068019B68
:109AC000E589E2881D44ADB21844AA42A060E58150
:109AD00001D03F2B25D8236923B1254A02213046E6
:109AE000984798B194F9002000239A42ACBF802196
:109AF000194630461A46FFF789F978B91D4B1B689D
:109B0000DB07BDD500BEBCE700BEB9E70146304665
:109B100000F048FB3046802100F044FB012002B0F9
:109B200070BDA28994F90010531B9BB2402B28BF33
:109B3000402300290ADB95424FF0000112D00F4A62
:109B40003046FFF763F90028D8D0E7E795420BD0FD
:109B500001461A460948019333F009FA8021074A61
:109B6000019BEDE70A46EBE780210022E8E700BF12
:109B7000A0740020F0ED00E000000000B4740020AC
:109B800042DF704743DF704744DF704712DF7047A2
:109B9000F0B5334CBFF35B8F014604F5907301259C
:109BA000D3E84F2FC3E8405F0028F9D1BFF35B8FA4
:109BB00012F0FF0F48D1082929D04E01A21954F8FC
:109BC00006C028489388284F01F5947601EB810E52
:109BD00050F82660D2889A1A93B2B6B200EB8E0281
:109BE00009B2B34228BF3346C2F800C707EB810071
:109BF000C2F8043747F82150BFF36F8FBFF34F8F80
:109C00001A4B984218D0043B984215D0F0BD154B22
:109C1000D3F8C024D1030FD494F80B1161B11449C7
:109C2000D4F80001C3F8A007C3F8A4270D60BFF360
:109C30006F8FBFF34F8FF0BD0023BFF35B8F84F8AE
:109C40002031BFF35B8FF0BD0A4B0B485A68C2F35B
:109C50000802003218BF0122BDE8F040FFF768B8E3
:109C6000F4740020007002402870024050700240DE
:109C70004870024000ED00E0E19C0200144BBFF38D
:109C80005B8F0122D3E84F1FC3E84C2FBCF1000FBC
:109C9000F8D1BFF35B8F11F0FF0F14D10260BFF357
:109CA0006F8FBFF34F8F0B4B984203D0043B98420A
:109CB00000D07047084BBFF35B8F002283F8202150
:109CC000BFF35B8F704701460448FFF731B800BF10
:109CD0001476002050700240F47400207D9C020035
:109CE000F0B5334CBFF35B8FC1B204F5907301261E
:109CF000D3E84F2FC3E8406F0028F9D1BFF35B8F43
:109D000012F0FF0F47D1082928D04D01621954F8ED
:109D100005E028489388DFF8B0C001F5947550F845
:109D20002570D2888D009A1A93B2BFB26A1800EBE0
:109D30008202BB4228BF3B46C2F800E76544C2F836
:109D400004374CF82160BFF36F8FBFF34F8F1A4B6E
:109D50009D4218D0043B9D4215D0F0BD154BD3F861
:109D6000C024D1030FD494F80B1161B11349D4F876
:109D70000001C3F8A007C3F8A4270E60BFF36F8FDC
:109D8000BFF34F8FF0BD0023BFF35B8F84F820310A
:109D9000BFF35B8FF0BD0A4B0A485A68C2F3080252
:109DA000003218BF0122BDE8F040FEF7C1BF00BF7E
:109DB000F47400200070024050700240487002406D
:109DC00000ED00E0E19C020028700240704700BFF7
:109DD000014B80225A60704700E100E0074BD3F846
:109DE0000014D3F8002400200A434FF48001C3F884
:109DF0000024C3F85801C3F80413704700700240F0
:109E000070B48A788C88414EC97802F07F03D509F6
:109E100005EB430006EB001001F00301C4F30A0454
:109E2000012904812BD0012101FA03F4BDB1384886
:109E300002339940C0F80413D0F810352343C0F81A
:109E40001035334B42F48071C3F81825C3F80C1554
:109E5000BFF36F8FBFF34F8F012070BC70472C484A
:109E600003F10C06B140C0F80413D0F8141503F543
:109E700094730C43C0F8144540F82350E1E7082BD5
:109E800008D0244B186810F00100E6D000BE002076
:109E900070BC7047EDB9B6F818311BB11C4B80216E
:109EA000C3F81C151A490023C1F85031D1F800330A
:109EB00013F4001308BFC1F85431154B4FF440118F
:109EC000C3F80413D3F8141541F48071C3F81415C2
:109ED000B7E7B6F808110E4B0020C3F82C0111B1FA
:109EE0008021C3F81C150A49D1F8003313F400137C
:109EF00008BFC1F85431064B0749C3F80413D3F81F
:109F0000101541F48071C3F810159AE7F47400201D
:109F100000700240F0ED00E0000820001F4B80229E
:109F20002DE9F041C3F88420BFF34F8FBFF36F8F4B
:109F300001241B4D1B4FA0460026A30004F10C0278
:109F4000A11C03F1804303F51C3308FA01F108FA60
:109F500002F20A43C7F8082328465E600134202233
:109F60009E62002133F027F8082C05F12005E4D18A
:109F70000D4BC7F808332022C7F81C6500217E620C
:109F80000A48BE6433F017F8C7F81485C7F810857F
:109F9000024B80225A60BDE8F08100BF00E100E082
:109FA000147500200070024000083000F475002095
:109FB00001F07F004FEAD11CF0B50CEB4005704F6B
:109FC0002D017E1985B0F47A4CB16E4B1C6814F0EB
:109FD000010401D000BE0024204605B0F0BD04F00D
:109FE000FF0E7A510C46B380A6F806E0002840D157
:109FF000002B54D1644BD3F88034C3F3C0136345B2
:10A000004DD0BFF35B8F07F590710122D1E84F3F30
:10A01000C1E8402F0028F9D1BFF35B8FDBB2002BE2
:10A0200040F09F8059490A60BFF36F8FBFF34F8F95
:10A03000BFF35B8F87F82031BFF35B8F544B5968B8
:10A04000C1F3080100314FF000034FF4E06201A8B2
:10A0500018BF0121CDF8063003938DF80840ADF804
:10A060000A30ADF80420FEF723FD0124204605B098
:10A07000F0BDBCF1000F15D107EB40170123FB72B7
:10A08000BFF36F8FBFF34F8FBB7A23B1FB7A03F01F
:10A09000FF04002B6ED10124204605B0F0BDBCF1B9
:10A0A000000F3CD007EB401100EB8003CD8A8A8A79
:10A0B0000C8B0969521B9B0092B203F1804303F59C
:10A0C0001C33A24228BF2246324DC3F8001600B20C
:10A0D000C3F80426304BBFF35B8F05EB80010122F0
:10A0E000D3E84F4FC3E8462F002EF9D1BFF35B8F63
:10A0F000E4B2002C3AD145F82020BFF36F8FBFF3B4
:10A100004F8F224B994202D0043B9942C3D1BFF3F7
:10A110005B8F002387F82031BFF35B8FBBE7012201
:10A120001D4BFA72BFF35B8FD3E84F4FC3E8412F4B
:10A130000029F9D1BFF35B8FE4B26CB9174B1A60F9
:10A14000BFF36F8FBFF34F8FBFF35B8F87F820C1D3
:10A150001446BFF35B8F3FE710491148FEF7E8FD57
:10A160003AE70A490E48FEF7E3FD67E70C48FEF7B9
:10A17000DFFD31E787F80AC0FFF70AFD2CE700BFD3
:10A18000F4740020F0ED00E00070024050700240D6
:10A1900000ED00E004700240147600204C70024094
:10A1A0007D9C020011F07F0008B512D008280BD06A
:10A1B0000E4B41F48072C909C3F8182504D10C4B29
:10A1C00003EB40139A7A62B9BFF36F8FBFF34F8FDF
:10A1D00008BD064B01225A65BFF36F8FBFF34F8F47
:10A1E00008BD9972FFF7D4FCEEE700BF0070024093
:10A1F000F474002011F0770F12D00A4B41F48072F2
:10A20000C3F80C15C3F80C25CA09C3F8181504BF08
:10A2100001F5947143F82120BFF36F8FBFF34F8F87
:10A22000704700BF007002402DE9F04FA54BA64CCF
:10A23000D3F80003002389B01E461F46012520FAEB
:10A2400003F11A19C9074FEA820209D5116839B119
:10A2500005FA03F117600E43BFF36F8FBFF34F8F03
:10A260000133192BEBD1F50700F17D82974D3405B1
:10A2700008D5944BD3F8A83601229BB2A5F8163125
:10A2800085F81C21B00220D58E4CD4F81435D905A0
:10A2900000F1FD81D4F81035DA0500F125824FF484
:10A2A0000013C4F808330DF116070DF1140800234C
:10A2B000CDF8163003227B603B81404601218DF8AA
:10A2C00014308DF81520FEF7F3FB73021FD57D4B7C
:10A2D000D3F8004404F4E062E705C3F8002400F179
:10A2E000AD82600510D5774B0122C3F808259A6529
:10A2F000D3F8002312F4001208BFC3F85421714BA5
:10A300004FF40012C3F80423A10500F1AD8232021C
:10A3100040D56C4BD3F88024D3F88414D3F888C488
:10A32000D3F88C74D3F89084D3F89444D3F8980479
:10A33000D3F89C34D2B25FFA80FAD8B25306C9B2CD
:10A340005FFA8CFCFFB25FFA88F85FFA84FE01D1F5
:10A3500005291FD04FF000094B464C4662F3070316
:10A3600068F3070461F30F236EF30F246CF31743B4
:10A370006AF3174460F31F6467F31F634FF4C0620E
:10A38000012105A8ADF81690CDE90634ADF81420EA
:10A39000FEF78EFB4E4B3340002B40F0D481DFF8AC
:10A3A0002C91484F4D46CA4609F5907800241FE08D
:10A3B0002B44DA7A002A00F02282DA88AAF80420F4
:10A3C0000022DA72DB88079301214FF4E06305A8CD
:10A3D000CDF81620ADF81A208DF818B0ADF814306D
:10A3E000FEF766FBBBF1080F47D001340AF1200AE3
:10A3F00004F10C0326FA03F3D8075FFA84FBF1D5C6
:10A4000004EB840307EB8303DAF80020D3F8080792
:10A41000630112FA80F2E918CAF80020CA8880B2F3
:10A42000024492B2082CCA80C2D0BAF808208242F4
:10A43000BED1CA88BAF804109142B9D9BBF1000F55
:10A44000D0D10122BFF35B8FD8E84F3FC8E8412F3E
:10A450000029F9D1BFF35B8F13F0FF0F1D4940F0C6
:10A460006A820A60BFF36F8FBFF34F8FBFF35B8FBA
:10A4700085F82031BFF35B8FB7E7174B3340002BD4
:10A4800000F002810F4BD3F86CA4C3F86CA4BFF3A7
:10A490006F8FBFF34F8F16F4806600F0B981D3F849
:10A4A0008024D3F8803483F08003C3F3C013039374
:10A4B000C2F3C0130293D046DFF808B00024AA46C6
:10A4C00014E000BF00700240409C0010F4740020B3
:10A4D000FCFB1F004C70024000040001002C00F047
:10A4E0000182072F50D0013409F1200928FA04F223
:10A4F00004EB8403D2070BEB83030AEB4415E7B2AA
:10A50000ECD5D3F80816D9F81020C9B20A44C9F816
:10A510001020E88A014489B2E982BF49E88AB9F883
:10A52000146061188900864200914FF0010E67F0B7
:10A530007F0101914FF0000C714605A840F2F280B6
:10A54000E88AB9F81810C3F80026361AB6B28E4257
:10A5500028BF0E46B14AC3F80466BFF35B8FD2E84A
:10A560004F3FC2E841EF0029F9D1BFF35B8F13F0F1
:10A57000FF0F40F03E81009BC3F800E0BFF36F8FF8
:10A58000BFF34F8F072FAED118F4803F5546C24618
:10A5900001D1039B43B1EB7A23B1EB88AA889A429D
:10A5A00000F290810123AB721AF4003F0AD095F8B3
:10A5B0002B3023B1EB8CAA8C9A4200F2A4810123A8
:10A5C00085F82A301AF4802F0CD095F84B3033B12F
:10A5D000B5F84630B5F844209A4200F2A481012330
:10A5E00085F84A301AF4002F0CD095F86B3033B14F
:10A5F000B5F86630B5F864209A4200F298810123DC
:10A6000085F86A301AF4801F0CD095F88B3033B17E
:10A61000B5F88630B5F884209A4200F257810123BC
:10A6200085F88A301AF4001F0CD095F8AB3033B19E
:10A63000B5F8A630B5F8A4209A4200F24B81012368
:10A6400085F8AA301AF4800F0CD095F8CB3033B1CE
:10A65000B5F8C630B5F8C4209A4200F23F81012314
:10A6600085F8CA301AF4000F0ED095F8EB30002BA5
:10A6700000F00B81B5F8E630B5F8E4209A4240F2DC
:10A6800004810720FFF784FA09B0BDE8F08F634B1F
:10A69000BFF35B8F0122D3E84F1FC3E8402F002890
:10A6A000F9D1BFF35B8F11F0FF0F40F0FA80D4F8BF
:10A6B000C034DF0300F11B8195F80B1101F0FF009E
:10A6C000002900F024815649D5F80001C4F8A007FC
:10A6D000C4F8A4370A60BFF36F8FBFF34F8FD4F86D
:10A6E0001035D9057FF5DFAD95F81C310DF1160752
:10A6F0000DF11408002B3FF4DAAD0023B5F8161164
:10A70000CDF8163085F81C31BB804FF4E06207911C
:10A71000882340460121ADF814208DF81830FEF74B
:10A72000C7F9C4E5EB8A07934FF4E063ADF8143042
:10A730009DF80430CDF816C0ADF81AC08DF8183069
:10A74000FEF7B6F9CDE6BFF35B8F95F82031BFF386
:10A750005B8F002B40F09D80324B1B68DC077FF540
:10A760001EAE00BE1BE6304B304A314D314800244E
:10A770004FF00109C2F81495C2F810955460946224
:10A780005C609C629C60DC62DC601C631C615C63DE
:10A790005C619C639C61DC63DC611C645462946456
:10A7A000C2F85841D2F80034D2F800140B43C2F872
:10A7B0000034D2F80033C2F808332146C2F804034B
:10A7C0000DF116070DF1200828464FF4927232F071
:10A7D000F2FB4FF48073CDF816407C603C8128F882
:10A7E0000C3D4023494640462B832B81FEF760F900
:10A7F0003DE5724600991048FEF79AFA71E6094B5A
:10A800001B68D9077FF540AF00BE09B0BDE8F08FE7
:10A81000CDE902664FE600BF019C001014760020CF
:10A8200048700240F0ED00E0047002400070024009
:10A83000F47400200514C0017D9C02000121C3F8BE
:10A840002C150422002305A8CDF81A30CDF81630B7
:10A85000ADF81E308DF814308DF81520FEF728F96C
:10A8600060057FF551AD3EE500230522012105A8D5
:10A87000CDF81A30CDF81630ADF81E308DF8143002
:10A880008DF81520FEF714F941E5012385F8EA302B
:10A89000FAE60023BFF35B8F85F82031BFF35B8FAF
:10A8A0007DE5274B27485A68C2F30802003218BFDB
:10A8B00001220821FEF73CFAD4F81035DB053FF5FC
:10A8C00013AFF0E40020FFF763F96DE60420FFF713
:10A8D0005FF9A7E60520FFF75BF9B3E60620FFF76F
:10A8E00057F9BFE6029A002A3FF4FDAD09E6BFF32F
:10A8F0005B8F85F82011BFF35B8FD4F81035D80536
:10A900003FF5F2AECFE40120FFF742F95AE6BFF37C
:10A910005B8F85F82001BFF35B8FD4F81035DA0523
:10A920003FF5E2AEBFE40220FFF732F95AE603201A
:10A93000FFF72EF966E60448FEF7FAF955E500BF81
:10A9400000ED00E0E19C02007D9C020030B5012892
:10A9500085B000F09F8057D3022840D1B94BD3F87F
:10A960000435002B40F0DD80B64AD2F800341C05D7
:10A97000FBD54FF40063C2F80034BFF36F8FBFF311
:10A980004F8FB14AB14B12681B68082A00F0DD8076
:10A99000AC4BAF4D80240122C3F81C45C3F80423FF
:10A9A000C5F88441FDF7F0FF002840F0FF80A94D75
:10A9B00043F204044FF080432268AA4211D0D3F836
:10A9C0000C14D3F80C24D003F6D5CA07F4D59D4B4C
:10A9D0000122C3F80425BFF36F8FBFF34F8F05B07B
:10A9E00030BD04AA002102F80C1D1046FFF7CEF876
:10A9F0009DF804000028E2D010460191FFF7C4F84A
:10AA0000019A002AD8D0E2E78E4BD3F80025002A1D
:10AA1000E5D14FF480014FF40062C3F80813C3F886
:10AA20000024BFF36F8FBFF34F8F874B1B68082B3A
:10AA300000F0BE80834B0122C3F80025BFF36F8F67
:10AA4000BFF34F8F43F2040203F18D5303F57723D5
:10AA5000126803F2DB539A4200F0D1804FF080433A
:10AA6000D3F80C24D3F80C34D90301D5D207B6D4CB
:10AA700043F20402774B12689A4200F01E81764B33
:10AA800000221A601B6801934FF080430122019954
:10AA90001A60A4E76B4BD3F80025002A9FD0002250
:10AAA000C3F80425BFF36F8FBFF34F8F6849802031
:10AAB000C1F88400BFF34F8FBFF36F8FD3F800133B
:10AAC000C3F80813C3F80025BFF36F8FBFF34F8F90
:10AAD00043F2040103F18D5303F57723096803F270
:10AAE000DB53994200F0A08001AB5C4A0121116068
:10AAF0005B4A5168C1F30801003118464FF0020269
:10AB00004FF0000318BF0121CDF80A30CDF8063010
:10AB1000ADF80E308DF804308DF80520FDF7C8FF34
:10AB20005DE743F204024B4B12689A4200F0B0809A
:10AB30004FF08043D3F80C24D3F80C34DB037FF5BB
:10AB400013AFD5077FF510AF49E7032B0AD8454A65
:10AB50001168002940F09880434C49F2753010602C
:10AB6000216010605A1E022A11D83E4A116800293D
:10AB700040F082803D4D3448344B00681B6849F2F8
:10AB8000753414602960146008287FF401AF032B2A
:10AB90003FF6FEAE3649374B40F2E3704022086084
:10ABA0001A60BFF36F8FBFF34F8FF1E66C60FEE664
:10ABB000264B1B685A1E022A12D82A4B1A68002AF2
:10ABC00040F08D80294949F2753203201A600860EF
:10ABD0001A601D4A1D4B12681B68082A7FF42AAFB1
:10ABE000032B3FF627AF1F4B1A68002A73D11E496B
:10ABF00049F27532C0201A6008601A601AE704AB87
:10AC0000002203F80C2D1846FEF7C0FF9DF8041033
:10AC100000293FF423AF18460192FEF7B5FF019BD0
:10AC2000002B7FF4DCAE23E704AB03F80C2D1846B1
:10AC3000FEF7ACFF9DF80420002A3FF456AFFEF764
:10AC4000A1FF55E7007002403001001034010010F0
:10AC500000E100E0DBE5B1510001004004000040EC
:10AC600000ED00E000EC064014EC064014ED064058
:10AC700000780240047802401B491C4B1C4A0868BB
:10AC80001B68002111607FE71A4A0021116069E703
:10AC900004AB002203F80C2D1846FEF777FF9DF851
:10ACA000041000293FF444AF18460192FEF76CFFF0
:10ACB000019B002B7FF493AE56E604A8002300F816
:10ACC0000C3DFEF763FF9DF80430002B3FF4D7AE38
:10ACD000FEF756FF83E6074BC0221A60AAE6044B34
:10ACE00003221A6075E700BF300100103401001024
:10ACF00014ED064014EC064008B50020FDF74CFEAC
:10AD000020B9034B1B68DB0700D500BE08BD00BFA0
:10AD1000F0ED00E0F8B5037813F0010405D10678F2
:10AD2000C6F3800626B12046F8BD00242046F8BDB3
:10AD30000F4605464FF0FF31384628F097F92A783C
:10AD400012F001040FD12B785B0704D42B7843F069
:10AD500004032B700124002338461A46194627F0B5
:10AD600005FD2046F8BD3446F5E700BF70B5054641
:10AD70000E4608464FF0FF3128F078F92878C0F3E6
:10AD8000800444B90024002330461A46194627F0AF
:10AD9000EDFC204670BD2B7813F00102F2D12B7828
:10ADA00062F382032B70EEE7C378828803F003001E
:10ADB0000228C2F30A021DD013D801280FD102299C
:10ADC00040F2FF3308BF4FF48063934211D20E4B21
:10ADD000186810F001000CD000BE00207047002061
:10ADE000704702290CBF4FF4806340239342EED397
:10ADF00001207047022902D0402AE8D8F8E7B2F5CE
:10AE0000007FE4D1F4E700BFF0ED00E00A44914296
:10AE100016D230B44C78052C05D00C7821448A42E7
:10AE2000F8D830BC70478C7804F07F0500EB4505FE
:10AE3000E4092B550C7821448A42EBD830BC70478A
:10AE4000704700BF10B510481CF01CFF012276218E
:10AE50000E4824F0EDFD0446A0B104210B4824F077
:10AE600021FF0221094824F02DFF0321074824F087
:10AE700039FF0221054824F045FF0022114603480E
:10AE800024F0F8FE204610BD30D0002024760020AB
:10AE900026482DE9F047804624F05CFE27F04CFB65
:10AEA00041F2873600270446002503E024F07CFEAB
:10AEB000814690B927F040FB8146B9EB04024FF080
:10AEC000000A6AEB0503964277EB03031748EDDAB5
:10AED0004FF000094846BDE8F087D8ED017ADFED74
:10AEE000146A98ED027A134B134C144DD8F80020D5
:10AEF00013482A60F8EE677AB0EE470A67EEA67A42
:10AF00000621C4ED007A83ED007A12F0CBFD95EDB9
:10AF1000000A0B48072112F08DFD94ED000A084845
:10AF2000082112F01BFE4846BDE8F0872476002079
:10AF30000AD7233C187600201C76002020760020BB
:10AF4000309C00200149024824F06ABD30D0002026
:10AF500024760020704700BF4FF480401DF0C6BA31
:10AF60002DE9F043294E2A4DDFF8C490CDB080463C
:10AF70000F4605243146284621F004FB28B9013C40
:10AF8000F8D120464DB0BDE8F0834A462149284615
:10AF900024F0EEF901222049284624F0A9FA1F489E
:10AFA0001F4990F809C0C378827890F808E0CDF87E
:10AFB00014C090F807C0CDF810E090F806E0CDF886
:10AFC0000CC090F805C000790090CDE901CE06A82C
:10AFD00032F0B4FE06AB134A1349284624F0AAFA0D
:10AFE0000CA93B464246284621F012FD0CAA0F4907
:10AFF000284624F0BDF900221146284624F0C4FB5F
:10B000000028BCD04DB0BDE8F08300BF7804060036
:10B01000B87B00208C04060018050600D8660020C6
:10B0200094040600B8040600C0040600C804060024
:10B030008404060070B5084E084D052431462846A4
:10B0400021F0A0FA00221146284624F09DFB08B901
:10B05000013CF3D170BD00BFAC030600B87B0020FB
:10B06000F8B5184F184DA8B9184E0524394628468A
:10B0700021F088FA3246164940B1284624F078F982
:10B0800000221146284624F07FFB10B9013CEDD187
:10B090002046F8BD0F4E05243946284621F072FAA5
:10B0A00032460B4948B1284624F062F90022114685
:10B0B000284624F069FB0028EBD1013CECD1204666
:10B0C000E7E700BFD0040600B87B0020E4040600D8
:10B0D000E0290600E80406002DE9F041AAB027F0B7
:10B0E0002BFAAC490346AC48CDE9023321F04AFAC9
:10B0F00000221146A84824F047FBA8B94FF00008E9
:10B100004746A64EA44D05243146284621F03AFA7A
:10B1100000221146284624F037FB10BB013CF3D136
:10B1200038462AB0BDE8F0819D499B4821F024FBB8
:10B13000002837D19B49984821F01EFB0028DDD01C
:10B140009949954821F018FB0028D7D004AA9549C1
:10B15000914821F025FF0746002840F0A480804652
:10B16000CFE790498C4821F007FB0028D8D08E49C2
:10B17000894821F001FB0028D2D08C49864821F073
:10B18000FBFA00283FD1B8F1000F54D0884982481B
:10B1900021F0F2FA0028C3D003AA85497E4821F0A5
:10B1A000B7FCBDE70AAA80237D497B4821F022FB3A
:10B1B0000028BFD00AA904A827F066F907A87D498E
:10B1C00027F062F907A904A827F0A4F907A827F037
:10B1D00081F907A8784927F057F907A904A827F0AB
:10B1E00099F907A827F076F907A8744927F04CF9D0
:10B1F00007A904A827F08EF907A827F06BF904A87F
:10B2000027F068F996E7694963480AAA142321F0F0
:10B21000F1FA0AA86A4932F0CDFD002866D1694BDF
:10B2200093F858200A2AAED00A22012083F8582029
:10B2300021F02CF8A7E704AA5A49574821F0B0FE9C
:10B240000028A3D007AA5849534821F0A9FE044674
:10B2500000289BD0DDED047A9DED077AF5EE407A6B
:10B26000F1EE10FA04D1B5EE407AF1EE10FA8DD07D
:10B27000DFED556A554827EE267A67EEA67ABDEED1
:10B28000C77AFDEEE77A002117EE902A17EE103A02
:10B2900000910A2121F0A6F801220B214B4812F05F
:10B2A000A9FB274672E707AA3F493B4821F078FEF1
:10B2B000804668B3DDED047A9DED077AF5EE407ABD
:10B2C000F1EE10FA26D1B5EE407AF1EE10FA21D166
:10B2D00000273749304821F04FFA00283FF411AFDA
:10B2E00002AA33492C4821F013FC0AE738490AA87E
:10B2F00032F060FD48BB334B93F85820082A3FF4E6
:10B3000042AF0822012083F8582020F0BFFF3AE71F
:10B310000746DEE7DFED2C6A2C4827EE267A67EE3B
:10B32000A67ABDEEC77AFDEEE77A002417EE902AE2
:10B3300017EE103A0A21009421F054F822460B210E
:10B34000224812F057FB4746C3E722490AA832F0C9
:10B3500031FD60B91B4B93F85820052A3FF413AF19
:10B360000522012083F8582020F090FF0BE71A49AE
:10B370000AA832F01FFD88BB124B93F85820062A0A
:10B380003FF401AF0622012083F8582020F07EFF11
:10B39000F9E600BF04040600B87B00204004060064
:10B3A000B003060030040600340406004C04060016
:10B3B00038040600140406001C04060028040600D5
:10B3C00054040600D86600208096184B309C00205C
:10B3D000580406005C0406006004060013490AA82D
:10B3E00032F0E8FCA8B112490AA832F0E3FC80B1BF
:10B3F00010490AA832F0DEFC58B10F490AA832F011
:10B40000D9FC30B10AA80D4932F0D4FC00287FF4F1
:10B41000BAAE0B4B93F85820042A3FF4B4AE042282
:10B42000012083F8582020F031FFACE664040600C8
:10B43000680406006C04060070040600740406002C
:10B44000D8660020F8B50F4E0F4D104F0524314639
:10B45000284621F097F810B9013CF8D1F8BD012237
:10B460003946284624F044F801220949284624F0A8
:10B470003FF800221146284624F086F90028EBD038
:10B48000F8BD00BFAC030600B87B0020F003060047
:10B49000F80306002DE9F0418046092026F058FF08
:10B4A0004B4E4C4D4C4F05243146284621F06AF84E
:10B4B000A0B9013CF8D1464E464DB8F1000F1ED060
:10B4C000464F05243146284621F05CF800284ED12D
:10B4D000013CF7D100252846BDE8F0813A464049B5
:10B4E000284623F045FF00221146284624F04CF957
:10B4F0000028DED0364E374DB8F1000FE0D131468E
:10B500002846384F052421F03DF838B9013CE1D0F8
:10B510003146284621F036F80028F7D03A4630491F
:10B52000284623F025FF4FF400722F49284624F0C7
:10B530002BF90028EAD0264F264EDFF8B4800524E8
:10B5400001E0013CC6D03946304621F01BF8002806
:10B55000F7D042462249304623F00AFF0022114626
:10B56000304624F011F905460028EAD0B3E73A4600
:10B570001B49284623F0FCFE4FF400721A49284666
:10B5800024F002F90028A3D0114F124EDFF860809A
:10B59000052401E0013C9DD03946304620F0F2FF01
:10B5A0000028F7D042460E49304623F0E1FE002243
:10B5B0001146304624F0E8F805460028EAD0FA2083
:10B5C00026F0C6FF04220949092026F0B7FD82E7CC
:10B5D000C0030600B87B0020CC030600D803060099
:10B5E000E0290600E40306002CD3002059AF020036
:10B5F000E0030600F0B5254E254D264F8BB00524FF
:10B600003146284620F0BEFF28B9013CF8D100247D
:10B6100020460BB0F0BD4FF400723946284624F0A6
:10B62000B3F80028F1D01C49194821F0A5F80028EA
:10B63000EDD0FF23194A1849154821F061F901A8F6
:10B64000174926F021FF04A8164926F01DFF07A878
:10B65000124926F019FF01A907A826F05BFF04A9EB
:10B66000441C07A818BF012426F054FF013007A886
:10B6700018BF023426F02EFF04A826F02BFF01A8E5
:10B6800026F028FF20460BB0F0BD00BFC003060027
:10B69000B87B00202CD30020B8030600B876002029
:10B6A000D8030600E403060010B5064C1721204617
:10B6B00020F046FF2046044A0449BDE8104030F01F
:10B6C0000DBA00BFB87B00200060002055AF02001B
:10B6D0002DE9F047A748A84EA84D1CF0D3FAA84979
:10B6E000A4481CF033FB002109202AF0D5F90524D9
:10B6F0003146284620F046FF20B9013CF8D1002011
:10B70000BDE8F08700221146284624F03DF80028C5
:10B71000F3D09C49994821F02FF8002840F0E180AF
:10B72000994E964D994F05243146284620F02AFF20
:10B73000002840F0AA80013CF6D1954E8F4D954FE0
:10B7400005243146284620F01DFF002840F08F8058
:10B75000013CF6D1904E894D8E4F05243146284646
:10B7600020F010FF002874D1013CF7D18B4E834D9F
:10B77000884F05243146284620F004FF00285BD17D
:10B78000013CF7D1864E7D4D824F05243146284637
:10B7900020F0F8FE002842D1013CF7D100F050FE25
:10B7A0000028ACD016227F497F4831F0D1FB002819
:10B7B00079D07E4F714CDFF8488205253946204606
:10B7C00020F0E0FE7A4E7B49B21C10B3204623F0F5
:10B7D000CFFD96F80231784A784920460BB9784A6D
:10B7E000764923F0C5FD774B7749DA6CA8FB023226
:10B7F0009209204623F08CFE01227449204623F052
:10B8000077FE00221146204623F0BEFF002840F0BC
:10B810008680642026F09CFE013DCFD16FE7012297
:10B820003946284623F064FE00221146284623F0BC
:10B83000ABFF0028B0D0B1E701223946284623F0FB
:10B8400057FE00221146284623F09EFF002897D07D
:10B8500098E701223946284623F04AFE0022114685
:10B86000284623F091FF00283FF47EAF7EE70122B7
:10B870003946284623F03CFE00221146284623F094
:10B8800083FF00283FF464AF64E73A464B492846FB
:10B8900023F06EFD00221146284623F075FF002894
:10B8A0003FF449AF49E74A494A4826F0E9FB4A498B
:10B8B000484826F0E5FB494B1B78002B51D1484EF8
:10B8C000394D06F1200734460FCCBC422860696030
:10B8D000AA60EB60264605F11005F4D123782B70A1
:10B8E00067E74FF480633F4A2649244820F082FFEF
:10B8F0003D4A3E49374826F0C3FB3749354826F0D4
:10B90000BFFB364B1B78002B3FF40AAF364A374952
:10B91000374826F0B5FB374818F0CCF800E7DFF8D9
:10B920007880164D344F05244146284620F02AFEE3
:10B930000122394678B1284623F0DAFD4FF0FF3274
:10B940002E49284623F0E4FD00221146284623F024
:10B950001BFF002856D1642026F0FAFD013CE3D1FC
:10B96000CDE61B49224826F08BFB224818F0A2F8AE
:10B97000A5E700BF30D0002030020600B87B0020D1
:10B98000A086010040020600D0040600E404060080
:10B99000580206006C0206007402060088020600C7
:10B9A0009C020600B002060022610020FC02060094
:10B9B0002061002004030600E8040600E0290600D8
:10B9C0000C030600D8660020140306001C030600C2
:10B9D000C802060098690020F01A0600DCD7002093
:10B9E000D8020600B8770020BC7700204802060085
:10B9F00000D70020E8D60020280306003003060008
:10BA0000D34D62104A4F4B4CDFF858814FF0050977
:10BA100005253946204620F0B5FD4246464940B14D
:10BA2000204623F0A5FC00221146204623F0ACFE60
:10BA3000D8B9013DEDD1DFF830A1052539462046C2
:10BA400020F0A0FD01225146204623F051FD0022A6
:10BA50001146204623F098FE08B9013DEED1B9F118
:10BA60000109D5D100283FF44AAE96F80432002BE4
:10BA700047D1324F2F4DDFF8F48005243946284650
:10BA800020F080FD10B9013CF8D138E642462A4941
:10BA9000284623F06DFC96F80331032B0DD8DFE820
:10BAA00003F01F142502264A2649284623F060FC8D
:10BAB000254A2649284623F05BFC002211462846E9
:10BAC00023F062FE0028DED01AE628461C4A1D49F3
:10BAD00023F04EFC1E4A1D49284623F049FCECE7A2
